:1000000012C02CC02BC02AC029C028C027C026C0BF
:1000100046C024C023C022C021C020C01FC01EC0B3
:100020001EC01CC01BC011241FBECFE5D4E0DEBF24
:10003000CDBF11E0A0E6B0E0E2EAF9E002C0059031
:100040000D92A631B107D9F711E0A6E1B1E001C0E8
:100050001D92AA34B107E1F7D5D2A1C4D1CF1F9226
:100060000F920FB60F9211248F9380912701813048
:1000700031F48EBD8091260187B982E008C080915D
:100080002701823031F4459B04C01EBC83E080937D
:1000900027018F910F900FBE0F901F9018951F9200
:1000A0000F920FB60F9211248F939F938091280186
:1000B00090912901019690932901809328019F91A5
:1000C0008F910F900FBE0F901F90189580E181BB0C
:1000D0009698929A1FBC1EBC84E089BF8BE088B9B9
:1000E00081E087B980B7886080BF339A08951F93F5
:1000F000CF93DF9331D3C9EDD0E010E088819981AF
:1001000060E02ED380E293E0D8D282990AC01F5FCC
:100110002296163099F720D3829BFECF8AE090E09A
:1001200014C01AD388EC90E0C8D2E12FF0E0EE0FB3
:10013000FF1FE752FF4F8081918160E011D380E97A
:1001400091E0BBD209D388EC90E0B7D2812FDF9148
:10015000CF911F910895EF92FF920F931F931092EA
:10016000270181E087B995988D9A8E9881E090E07B
:10017000A4D2829B86C0459B05C08E9A8AE090E0FF
:100180009CD2F3CF8E9A84E690E097D21EBC1DBC21
:100190001CBC10922901109228018D98959881E03D
:1001A0008093270180918300982F80FF02C083E015
:1001B00001C082E08093260194988E9892FF27C018
:1001C00000E010E005C081E090E077D2829B59C04A
:1001D00080912701813039F40F5F1F4F81E0043F88
:1001E000180789F703C0045F114058F08E9A84E61F
:1001F00090E063D28E98959A8D9A80918300826068
:1002000003C0809183008D7F809383000BC091FF9A
:1002100009C0959A8D9A06C081E090E04ED28299ED
:1002200003C02FC000E010E080912701833031F03F
:100230000F5F1F4F87E20031180771F78D9895986F
:100240008E9A949A8091270190918300833011F0C7
:10025000986001C0977F909383001092270180914E
:100260002801909129012CB53DB5A0E0B0E08C01AA
:10027000FF24EE2440E050E0E20EF31E041F151FA1
:1002800003C0EE24FF248701B701C8011F910F911D
:10029000FF90EF900895BF92CF92DF92EF92FF927E
:1002A0000F931F93B09083001092830054DF9B0143
:1002B000AC01E0918300F0E005EEC02E00E0D02E0E
:1002C000EE0FFF1F86010E0F1F1FB6E1EB2EB1E0F0
:1002D000FB2EEE0FFF1FEE0DFF1D80819181A2818D
:1002E000B381281B390B4A0B5B0B232F342F452F6F
:1002F000552760E070E482E49FE001D32F5F3F4F19
:10030000F8013183208381E08093830024DF9B0107
:10031000AC01E0918300F0E0EE0FFF1F86010E0FAD
:100320001F1FEE0FFF1FEE0DFF1D80819181A28127
:10033000B381281B390B4A0B5B0B232F342F452F1E
:10034000552760E070E482E49FE0D9D22F5F3F4FF1
:10035000F8013183208382E080938300FCDE9B01DF
:10036000AC01E0918300F0E0EE0FFF1F86010E0F5D
:100370001F1FEE0FFF1FEE0DFF1D80819181A281D7
:10038000B381281B390B4A0B5B0B60E070E088EEF1
:1003900093E0B5D22F5F3F4FF8013183208383E094
:1003A00080938300D8DE9B01AC018091830090E0B4
:1003B000880F991FC80ED91E880F991FE80EF91EC5
:1003C000F70180819181A281B381281B390B4A0BEF
:1003D0005B0B60E070E088EE93E091D22F5F3F4FBF
:1003E000F60131832083B09283001F910F91FF901B
:1003F000EF90DF90CF90BF900895FF920F931F93DF
:10040000F090830010928300A6DEA5DEE0918300C9
:10041000F0E006E111E0EE0FFF1FEE0FFF1FE00F0F
:10042000F11F608371838283938381E080938300D3
:1004300092DE91DE2091830030E0220F331F220FE5
:10044000331F020F131FF80160837183828393832C
:10045000F09283001F910F91FF900895AF92BF9289
:10046000CF92DF92EF92FF920F931F93D62EC72E5B
:10047000B82EA92E8091830082FF03C080E690E011
:1004800002C086E690E060E06BD18091830081FF3E
:1004900003C08CE690E002C082E790E060E160D1AA
:1004A0008091830083FF17C020E220932A012093CC
:1004B0002B0120932C0185E480932D0192E79093EA
:1004C0002E0190932F018FE680933001909331019C
:1004D000209332016BC08370A82FB0E0FD01EE0FB6
:1004E000FF1FEE0FFF1FEA5EFE4FE080F1800281EA
:1004F00013812D2D3C2D4B2D5A2D2E153F054007D8
:10050000510750F48DE280932A01C801B701621BA4
:10051000730B840B950B09C080E280932A01CA01FA
:10052000B9016E197F09800B910B8B019C01AA0FF9
:10053000BB1FAB51BF4F8D919C9166275527442718
:10054000089F712D099F700D411D561F189F700D3A
:10055000411D561F199F400D511D661F289F400DBC
:10056000511D08F463957727299F500D611D08F4EC
:100570007395389F500D611D08F47395399F600D78
:10058000711D11248BE291E047D1E82F8091830007
:1005900081FDEF5F80E280933001F0E0E258FF4F91
:1005A00080818093310186E480933201109233017F
:1005B0008091830080FD02C067E101C067E08AE2AC
:1005C00091E0CED01F910F91FF90EF90DF90CF90F0
:1005D000BF90AF90089581E090E063E4D3D182E0D2
:1005E00090E064E4CFD186E191E063E070E040E127
:1005F00050E0BFD185EE90E063E170E048E050E06C
:10060000B8D108951F9362DD949884D0789484E0E3
:1006100080938300A1D088E790E060E0A1D011E052
:100620008091830081278093830095DD82992AC081
:10063000949A8D9895988E9A5ADD8230C1F08330C5
:1006400028F4882351F0813059F70BC08430B1F081
:10065000843090F0853021F713C08091830084604E
:1006600003C080918300897F80938300D9CF8091DC
:1006700083008B7F8260F8CFC0DED2CF0CDED0CF7C
:10068000AADFCECFEBDECCCF81E090E06AD183341D
:1006900099F482E090E065D1843471F486E191E0D0
:1006A00063E070E040E150E04CD185EE90E063E122
:1006B00070E048E050E045D1089520E03FE004C0FC
:1006C000F9013197F1F701970097D1F70895382F85
:1006D000811130E2862F82958F70832B88BBC49A5C
:1006E00025E0822F8A95F1F7C49880E09FE0FC0115
:1006F0003197F1F7FC013197F1F76F70362B38BB6A
:10070000C49A2A95F1F7C498FC013197F1F7019743
:10071000F1F7089518BA8FEF87BB82E390E020E0ED
:100720003FE0F9013197F1F70197D9F780E063E3F2
:10073000CEDF80E062E3CBDF80E068E2C8DF80E00C
:1007400068E0C5DF80E06CE0C2DF80E061E0BFDF31
:1007500080E066E0BCDF089580E061E0B8DF0895E6
:100760001F93CF93DF93EC01162F603110F4605884
:1007700003C0603290F4605580E0A9DF0BC01032F6
:1007800061F081E0A4DF1F5F103119F480E060ECBC
:100790009EDF21966881662391F7DF91CF911F91AB
:1007A0000895EF92FF920F931F93CF93DF93EC0185
:1007B00003E010E0E22EFF242EE2872FBB2787FD07
:1007C000B0959B2FAB2F382F32953F703A3010F4F5
:1007D000305D01C0395CFE0131938F708A3010F4B6
:1007E000805D01C0895CEF0189930E151F0511F42E
:1007F00021832196015010408FEF0F3F180729F0F9
:10080000762F652F542F4427D8CFDF91CF911F919A
:100810000F91FF90EF900895BF92CF92DF92EF92E9
:10082000FF920F931F93CF93DF937C01CDEED0E027
:1008300020E010E030E000E0A0E3CA2EF0E2DF2E7E
:10084000EEE2BE2E11C0002371F0343029F03730B3
:1008500021F0313041F41F5F1F5F1F5FF701E20F8E
:10086000F11DB0822F5F249688819981AA81BB8176
:10087000481759076A077B07B0F4002329F0F701EE
:10088000E20FF11DC0820DC0363040F1F701E20FDA
:10089000F11DD0822F5F363009F5F701E20FF11D0F
:1008A000D0822F5F1BC0F701E20FF11DC0820BC089
:1008B00080818F5F808388819981AA81BB81481B59
:1008C000590B6A0B7B0B88819981AA81BB814817E0
:1008D00059076A077B0760F72F5F01E03F5F3A30F7
:1008E00019F0253008F4AFCF812FDF91CF911F9100
:1008F0000F91FF90EF90DF90CF90BF900895A1E20D
:100900001A2EAA1BBB1BFD010DC0AA1FBB1FEE1F89
:10091000FF1FA217B307E407F50720F0A21BB30BD4
:10092000E40BF50B661F771F881F991F1A9469F750
:1009300060957095809590959B01AC01BD01CF01AC
:100940000895DC01CB01FC01E199FECF06C0FFBB9D
:10095000EEBBE09A31960DB20D9241505040B8F77F
:100960000895E199FECF9FBB8EBBE09A99278DB386
:100970000895DC01CB0102C02D9105D041505040BB
:10098000D8F70895262FE199FECF9FBB8EBB2DBBD4
:100990000FB6F894E29AE19A0FBE01960895F89482
:0209A000FFCF87
:1009A2004175746F2000466F726365002068696745
:1009B2006800206C6F77200048454C4C4F00706EE9
:1009C200756D200452616E67653A204175746F003F
:1009D20052616E67653A204C6F77200052616E67F4
:1009E200653A20486967680043616C6962726174A4
:1009F200653A205A65726F0043616C696272617474
:100A0200653A203120754600536176652063616C3A
:100A12006962726174696F6E00840090009C00A824
:100A220000B800C800B6535C24DF4BF52000CA9A18
:100A32003B00E1F5058096980040420F00A0860138
:100A42000010270000E8030000640000000A000014
:060A52000001000000009D
:00000001FF
