:1000000055C0E0C16EC06DC06CC06BC06AC069C035
:1000100068C067C066C065C064C063C062C061C0BC
:1000200060C05FC05EC00902220001010080320989
:100030000400000103000000092101010001221653
:100040000007058103080064120110010000000888
:10005000C016DF050A0B010203011A0376006500D2
:100060007200730069006F006E00200030002E00E7
:1000700031001803740065006D00700065007200A7
:100080006100740075007200650008034E005000A6
:100090004C00040309040600FF0901A10115002614
:1000A000FF00750895800900B20201C011241FBE2F
:1000B000CFE5D4E0DEBFCDBF10E0A0E6B0E0EAEAD5
:1000C000F7E002C005900D92A436B107D9F712E00F
:1000D000A4E6B0E001C01D92A232B107E1F726D339
:1000E00062C38ECFCF93C62F2091730024FF07C029
:1000F0002091740038E823272093740003C02AE578
:1001000020937300DC01E5E7F0E09C2F9E0F8D91BA
:100110008193892F8E1B1816D4F36C2F85E790E0FE
:100120004DD1CC5FC0937300CF910895CF93DF93EF
:1001300060918400635067FDC8C080918100CCE06D
:10014000D0E0C81BD109C857DF4F809180008D32A5
:1001500009F0AAC0683009F0B6C083EC809368004B
:100160008AE580936100109264008881807631F086
:10017000CE0191D28F3F09F486C08CC09A81109233
:1001800071008981811106C01092720021E730E070
:1001900082E074C0853019F4909385006CC086307D
:1001A00009F053C08B81813041F488E490E0909352
:1001B00083008093820082E144C0823041F486E271
:1001C00090E0909383008093820082E23AC0833073
:1001D00019F5911108C082E990E090938300809313
:1001E000820084E02EC0913041F48AE890E0909340
:1001F00083008093820088E024C0923019F482E763
:1002000090E004C09330E1F48AE590E0909383009D
:100210008093820088E115C0813241F488E390E048
:10022000909383008093820089E00BC0823241F476
:1002300086E990E0909383008093820086E101C07C
:1002400080E090E49093640025C0883069F08930A4
:1002500019F4909387000FC08A3049F08B3059F41D
:100260008BE48093740007C027E830E002C021E7E8
:1002700030E081E003C021E730E080E0309383008C
:100280002093820007C0988197FD8E8190E890931B
:10029000640007C09F81911104C09E81981708F4E3
:1002A000892F809360000FC08091640087FF0BC08E
:1002B000CE01C2D18F3F21F48EE18093610003C053
:1002C000811110926000109284008091610084FF7F
:1002D00046C0809160008F3F09F441C0C82F89302B
:1002E00008F0C8E08C1B809360008091680098E85B
:1002F000892780936800CC2331F1209182003091CE
:1003000083008091640086FF0BC0A9E6B0E0F9018C
:100310008C2F8A0F94919D9331968A13FBCF09C03D
:10032000D901E9E6F0E08C2F8E0F9D9191938E1309
:10033000FCCF8FEF8C0F90E00196820F931F90936C
:100340008300809382006C2F89E690E037D0CC5FE9
:10035000CC3019F08FEF80936000C093610084E18E
:1003600096B3937031F48150D9F7109285001092B2
:100370007F00DF91CF91089585B7826085BF8BB7ED
:1003800080648BBF8BE4809374008AE58093730054
:100390000895A82FB92F80E090E041E050EA6095E1
:1003A00030E009C02D9182279795879510F084271A
:1003B0009527305EC8F36F5FA8F30895EADF8D9349
:1003C0009D930895CF93CFB7CF93C395B09BE9F793
:1003D000B09B09C0B09B07C0B09B05C0B09B03C0D9
:1003E000B09B01C0A3C0DF93C0918100DD27C85737
:1003F000DF4FB09B02C0DF91EBCF2F930F931F9382
:1004000006B32FEF00FB20F94F933F9316B34FEF46
:10041000012700FB21F93BE031C04E7F012F16B3CD
:10042000216028C0102F4D7F2260000006B329C034
:100430004B7F2460012F000016B32BC016B3477FFB
:1004400028602AC04F7E06B320612CC04F7D16B3B2
:1004500020622FC04F7B06B3206432C0422706B310
:1004600049934FEF0000102710FB20F916B31370CB
:10047000C9F1297F91F2012700FB21F906B3237FFF
:1004800089F2315058F1102710FB22F916B3277E5C
:1004900079F2012700FB23F92F7C81F206B31027A4
:1004A00010FB24F92F7971F200C016B3012700FB6D
:1004B00025F92F7359F200C006B3102710FB26F957
:1004C000223040F200C016B3012700FB27F9243088
:1004D00028F64F77206816B30000F9CF10E41ABF52
:1004E000002719C03B503195C31BD04010E41ABF00
:1004F0000881033CF9F00B34E9F020917F00198169
:10050000110F1213EDCF4A81441F093641F10D320C
:1005100011F0013E29F7009386003F914F911F9102
:100520000F912F91DF91CAB7C6FD4FCFCF91CFBFAB
:10053000CF91189520918600222379F310918400A1
:10054000112369F534306AF13093840020938000E0
:10055000109181003BE0311B3093810022C000915B
:1005600084000130E4F40AE54F7049F430916100F1
:1005700034FD19C000936100C8E6D0E018C0309186
:10058000730034FD10C000937300C4E7D0E00FC0C7
:100590002795A8F45150A9F4220F0000F9CF4AE59D
:1005A00003C042ED01C0432FC4E1D0E032E017B3F5
:1005B0001360C09A17BB08B320E413E05F930127D0
:1005C00056E008BB279520F4515021F4220FF9CFB3
:1005D000012756E000003B5A08BBD0F2279528F4CB
:1005E000515029F4220F0000F9CF012756E027953A
:1005F00008BB20F4515021F4220FF9CF012756E017
:100600002991332308BB21F60C7F10918500110F2F
:10061000C651D04008BB11F010937F0010E41ABF00
:10062000016017B31C7F402F4C7F5F9100C000C05A
:1006300008BB17BB48BB71CF20919E00709167002B
:10064000462F50E030E0271B3109241735072CF4E2
:1006500060919E0020916700621B282FFC018E2F65
:10066000821B861760F4A091670081E08A0F809357
:100670006700B0E08191A05EBE4F8C93F0CF909167
:10068000670080919E00981720F01092650081E02D
:10069000089580E00895FC01808180768032E1F445
:1006A0008181813069F480912002909121029093A0
:1006B00083008093820080911F0110921F01089592
:1006C000893051F481E080936500868180939E009B
:1006D000109267008FEF089580E0089520916200E6
:1006E00030916300309321022093200280931F01F8
:1006F000205A314019F48FE990E002C080EA91E07D
:1007000090936300809362000895209165002130EA
:1007100059F040919E0020E231E0FC0131832083BA
:1007200010929E00842F089580E00895CF93DF9368
:1007300000D0CDB7DEB71A8219821EDEB89A8FEFCD
:10074000815039F0E7EBFBE03197F1F700C0000092
:10075000F7CFB8987894EADCCE010196D6DF8138DD
:1007600018F48823C1F301C080E8E0916200F091A1
:100770006300808320E030E0A9014F5F5F4FE0918C
:100780006200F0916300E40FF51FA981BA81A20F06
:10079000B31F9C919F5F9083481710F49A01ECCF90
:0A07A0008F5F9CDFD8CFF894FFCFE5
:0407AA00FF5AA00151
:00000001FF
